{
  "contractName": "SensorRanking",
  "abi": [
    {
      "inputs": [],
      "stateMutability": "nonpayable",
      "type": "constructor"
    },
    {
      "inputs": [],
      "name": "centralWeightPool",
      "outputs": [
        {
          "internalType": "uint256",
          "name": "",
          "type": "uint256"
        }
      ],
      "stateMutability": "view",
      "type": "function"
    },
    {
      "inputs": [
        {
          "internalType": "string",
          "name": "",
          "type": "string"
        }
      ],
      "name": "sensorIndex",
      "outputs": [
        {
          "internalType": "uint256",
          "name": "",
          "type": "uint256"
        }
      ],
      "stateMutability": "view",
      "type": "function"
    },
    {
      "inputs": [
        {
          "internalType": "uint256",
          "name": "",
          "type": "uint256"
        }
      ],
      "name": "sensors",
      "outputs": [
        {
          "internalType": "string",
          "name": "sensorId",
          "type": "string"
        },
        {
          "internalType": "int256",
          "name": "totalWeight",
          "type": "int256"
        }
      ],
      "stateMutability": "view",
      "type": "function"
    },
    {
      "inputs": [
        {
          "internalType": "string",
          "name": "sensorId",
          "type": "string"
        },
        {
          "internalType": "int256",
          "name": "moisture",
          "type": "int256"
        },
        {
          "internalType": "int256",
          "name": "ph",
          "type": "int256"
        }
      ],
      "name": "addSensorReading",
      "outputs": [],
      "stateMutability": "nonpayable",
      "type": "function"
    },
    {
      "inputs": [],
      "name": "sortSensors",
      "outputs": [],
      "stateMutability": "nonpayable",
      "type": "function"
    },
    {
      "inputs": [],
      "name": "getSensorCount",
      "outputs": [
        {
          "internalType": "uint256",
          "name": "",
          "type": "uint256"
        }
      ],
      "stateMutability": "view",
      "type": "function"
    },
    {
      "inputs": [
        {
          "internalType": "uint256",
          "name": "index",
          "type": "uint256"
        }
      ],
      "name": "getSensor",
      "outputs": [
        {
          "internalType": "string",
          "name": "",
          "type": "string"
        },
        {
          "internalType": "int256",
          "name": "",
          "type": "int256"
        }
      ],
      "stateMutability": "view",
      "type": "function"
    },
    {
      "inputs": [],
      "name": "getSortedSensors",
      "outputs": [
        {
          "internalType": "string[]",
          "name": "",
          "type": "string[]"
        }
      ],
      "stateMutability": "view",
      "type": "function"
    },
    {
      "inputs": [],
      "name": "getCentralWeightPool",
      "outputs": [
        {
          "internalType": "uint256",
          "name": "",
          "type": "uint256"
        }
      ],
      "stateMutability": "view",
      "type": "function"
    }
  ],
  "bytecode": "0x608060405261c3506002553480156200001757600080fd5b50620000646040518060400160405280600781526020017f53656e736f723100000000000000000000000000000000000000000000000000815250610e10610258620002ca60201b60201c565b620000b06040518060400160405280600781526020017f53656e736f723100000000000000000000000000000000000000000000000000815250610dac61028a620002ca60201b60201c565b620000fc6040518060400160405280600781526020017f53656e736f723100000000000000000000000000000000000000000000000000815250610e74610226620002ca60201b60201c565b620001486040518060400160405280600781526020017f53656e736f723200000000000000000000000000000000000000000000000000815250610fa06102bc620002ca60201b60201c565b620001946040518060400160405280600781526020017f53656e736f723200000000000000000000000000000000000000000000000000815250610f3c610258620002ca60201b60201c565b620001e06040518060400160405280600781526020017f53656e736f723200000000000000000000000000000000000000000000000000815250611004610226620002ca60201b60201c565b6200022c6040518060400160405280600781526020017f53656e736f723300000000000000000000000000000000000000000000000000815250610c1c6101f4620002ca60201b60201c565b620002786040518060400160405280600781526020017f53656e736f723300000000000000000000000000000000000000000000000000815250610bb8610258620002ca60201b60201c565b620002c46040518060400160405280600781526020017f53656e736f723300000000000000000000000000000000000000000000000000815250610c80610226620002ca60201b60201c565b62000a6c565b6000620002de83836200046560201b60201c565b90506000600185604051620002f4919062000587565b90815260200160405180910390205411156200037e578060006001808760405162000320919062000587565b9081526020016040518091039020546200033b9190620005d9565b815481106200034f576200034e62000614565b5b906000526020600020906002020160010160008282546200037191906200064d565b925050819055506200040d565b600060405180604001604052808681526020018381525090806001815401808255809150506001900390600052602060002090600202016000909190919091506000820151816000019081620003d59190620008fd565b50602082015181600101555050600080549050600185604051620003fa919062000587565b9081526020016040518091039020819055505b6000811315620004385780600260008282546200042b9190620005d9565b925050819055506200045f565b806200044490620009e4565b6002600082825462000457919062000a31565b925050819055505b50505050565b60008083610bb8131580156200047d57506127108413155b620004a9577fffffffffffffffffffffffffffffffffffffffffffffffffffffffffffffff9c620004ac565b60645b905060008361157c13158015620004c557506119648413155b620004f1577fffffffffffffffffffffffffffffffffffffffffffffffffffffffffffffffce620004f4565b60325b905080826200050491906200064d565b9250505092915050565b600081519050919050565b600081905092915050565b60005b838110156200054457808201518184015260208101905062000527565b60008484015250505050565b60006200055d826200050e565b62000569818562000519565b93506200057b81856020860162000524565b80840191505092915050565b600062000595828462000550565b915081905092915050565b6000819050919050565b7f4e487b7100000000000000000000000000000000000000000000000000000000600052601160045260246000fd5b6000620005e682620005a0565b9150620005f383620005a0565b92508282039050818111156200060e576200060d620005aa565b5b92915050565b7f4e487b7100000000000000000000000000000000000000000000000000000000600052603260045260246000fd5b6000819050919050565b60006200065a8262000643565b9150620006678362000643565b925082820190508281121560008312168382126000841215161715620006925762000691620005aa565b5b92915050565b7f4e487b7100000000000000000000000000000000000000000000000000000000600052604160045260246000fd5b7f4e487b7100000000000000000000000000000000000000000000000000000000600052602260045260246000fd5b600060028204905060018216806200070f57607f821691505b602082108103620007255762000724620006c7565b5b50919050565b60008190508160005260206000209050919050565b60006020601f8301049050919050565b600082821b905092915050565b6000600883026200078f7fffffffffffffffffffffffffffffffffffffffffffffffffffffffffffffffff8262000750565b6200079b868362000750565b95508019841693508086168417925050509392505050565b6000819050919050565b6000620007de620007d8620007d284620005a0565b620007b3565b620005a0565b9050919050565b6000819050919050565b620007fa83620007bd565b620008126200080982620007e5565b8484546200075d565b825550505050565b600090565b620008296200081a565b62000836818484620007ef565b505050565b5b818110156200085e57620008526000826200081f565b6001810190506200083c565b5050565b601f821115620008ad5762000877816200072b565b620008828462000740565b8101602085101562000892578190505b620008aa620008a18562000740565b8301826200083b565b50505b505050565b600082821c905092915050565b6000620008d260001984600802620008b2565b1980831691505092915050565b6000620008ed8383620008bf565b9150826002028217905092915050565b62000908826200050e565b67ffffffffffffffff81111562000924576200092362000698565b5b620009308254620006f6565b6200093d82828562000862565b600060209050601f83116001811462000975576000841562000960578287015190505b6200096c8582620008df565b865550620009dc565b601f19841662000985866200072b565b60005b82811015620009af5784890151825560018201915060208501945060208101905062000988565b86831015620009cf5784890151620009cb601f891682620008bf565b8355505b6001600288020188555050505b505050505050565b6000620009f18262000643565b91507f8000000000000000000000000000000000000000000000000000000000000000820362000a265762000a25620005aa565b5b816000039050919050565b600062000a3e82620005a0565b915062000a4b83620005a0565b925082820190508082111562000a665762000a65620005aa565b5b92915050565b61142c8062000a7c6000396000f3fe608060405234801561001057600080fd5b50600436106100935760003560e01c806378804426116100665780637880442614610135578063a5c3a48b14610166578063b49b673b14610182578063cd37a140146101a0578063eeed6036146101be57610093565b8063379b6d35146100985780633c11011f146100c85780633c51b21f146100e6578063412f2e8214610104575b600080fd5b6100b260048036038101906100ad9190610ac6565b6101c8565b6040516100bf9190610b28565b60405180910390f35b6100d06101f6565b6040516100dd9190610b28565b60405180910390f35b6100ee610200565b6040516100fb9190610b28565b60405180910390f35b61011e60048036038101906101199190610b6f565b61020c565b60405161012c929190610c34565b60405180910390f35b61014f600480360381019061014a9190610b6f565b6102c8565b60405161015d929190610c34565b60405180910390f35b610180600480360381019061017b9190610c90565b6103ab565b005b61018a610525565b6040516101979190610e0b565b60405180910390f35b6101a8610674565b6040516101b59190610b28565b60405180910390f35b6101c661067a565b005b6001818051602081018201805184825260208301602085012081835280955050505050506000915090505481565b6000600254905090565b60008080549050905090565b6000818154811061021c57600080fd5b906000526020600020906002020160009150905080600001805461023f90610e5c565b80601f016020809104026020016040519081016040528092919081815260200182805461026b90610e5c565b80156102b85780601f1061028d576101008083540402835291602001916102b8565b820191906000526020600020905b81548152906001019060200180831161029b57829003601f168201915b5050505050908060010154905082565b606060008083815481106102df576102de610e8d565b5b90600052602060002090600202016000016000848154811061030457610303610e8d565b5b90600052602060002090600202016001015481805461032290610e5c565b80601f016020809104026020016040519081016040528092919081815260200182805461034e90610e5c565b801561039b5780601f106103705761010080835404028352916020019161039b565b820191906000526020600020905b81548152906001019060200180831161037e57829003601f168201915b5050505050915091509150915091565b60006103b783836108cb565b905060006001856040516103cb9190610ef8565b908152602001604051809103902054111561044a57806000600180876040516103f49190610ef8565b90815260200160405180910390205461040d9190610f3e565b8154811061041e5761041d610e8d565b5b9060005260206000209060020201600101600082825461043e9190610f72565b925050819055506104d5565b60006040518060400160405280868152602001838152509080600181540180825580915050600190039060005260206000209060020201600090919091909150600082015181600001908161049f9190611162565b506020820151816001015550506000805490506001856040516104c29190610ef8565b9081526020016040518091039020819055505b60008113156104fc5780600260008282546104f09190610f3e565b9250508190555061051f565b8061050690611234565b60026000828254610517919061127c565b925050819055505b50505050565b60606000808054905067ffffffffffffffff8111156105475761054661099b565b5b60405190808252806020026020018201604052801561057a57816020015b60608152602001906001900390816105655790505b50905060005b60008054905081101561066c57600081815481106105a1576105a0610e8d565b5b906000526020600020906002020160000180546105bd90610e5c565b80601f01602080910402602001604051908101604052809291908181526020018280546105e990610e5c565b80156106365780601f1061060b57610100808354040283529160200191610636565b820191906000526020600020905b81548152906001019060200180831161061957829003601f168201915b505050505082828151811061064e5761064d610e8d565b5b60200260200101819052508080610664906112b0565b915050610580565b508091505090565b60025481565b60008080549050905060005b818110156108c75760005b6001828461069f9190610f3e565b6106a99190610f3e565b8110156108b35760006001826106bf919061127c565b815481106106d0576106cf610e8d565b5b906000526020600020906002020160010154600082815481106106f6576106f5610e8d565b5b90600052602060002090600202016001015412156108a057600080828154811061072357610722610e8d565b5b906000526020600020906002020160405180604001604052908160008201805461074c90610e5c565b80601f016020809104026020016040519081016040528092919081815260200182805461077890610e5c565b80156107c55780601f1061079a576101008083540402835291602001916107c5565b820191906000526020600020905b8154815290600101906020018083116107a857829003601f168201915b50505050508152602001600182015481525050905060006001836107e9919061127c565b815481106107fa576107f9610e8d565b5b90600052602060002090600202016000838154811061081c5761081b610e8d565b5b90600052602060002090600202016000820181600001908161083e919061130e565b506001820154816001015590505080600060018461085c919061127c565b8154811061086d5761086c610e8d565b5b906000526020600020906002020160008201518160000190816108909190611162565b5060208201518160010155905050505b80806108ab906112b0565b915050610691565b5080806108bf906112b0565b915050610686565b5050565b60008083610bb8131580156108e257506127108413155b61090c577fffffffffffffffffffffffffffffffffffffffffffffffffffffffffffffff9c61090f565b60645b905060008361157c1315801561092757506119648413155b610951577fffffffffffffffffffffffffffffffffffffffffffffffffffffffffffffffce610954565b60325b905080826109629190610f72565b9250505092915050565b6000604051905090565b600080fd5b600080fd5b600080fd5b600080fd5b6000601f19601f8301169050919050565b7f4e487b7100000000000000000000000000000000000000000000000000000000600052604160045260246000fd5b6109d38261098a565b810181811067ffffffffffffffff821117156109f2576109f161099b565b5b80604052505050565b6000610a0561096c565b9050610a1182826109ca565b919050565b600067ffffffffffffffff821115610a3157610a3061099b565b5b610a3a8261098a565b9050602081019050919050565b82818337600083830152505050565b6000610a69610a6484610a16565b6109fb565b905082815260208101848484011115610a8557610a84610985565b5b610a90848285610a47565b509392505050565b600082601f830112610aad57610aac610980565b5b8135610abd848260208601610a56565b91505092915050565b600060208284031215610adc57610adb610976565b5b600082013567ffffffffffffffff811115610afa57610af961097b565b5b610b0684828501610a98565b91505092915050565b6000819050919050565b610b2281610b0f565b82525050565b6000602082019050610b3d6000830184610b19565b92915050565b610b4c81610b0f565b8114610b5757600080fd5b50565b600081359050610b6981610b43565b92915050565b600060208284031215610b8557610b84610976565b5b6000610b9384828501610b5a565b91505092915050565b600081519050919050565b600082825260208201905092915050565b60005b83811015610bd6578082015181840152602081019050610bbb565b60008484015250505050565b6000610bed82610b9c565b610bf78185610ba7565b9350610c07818560208601610bb8565b610c108161098a565b840191505092915050565b6000819050919050565b610c2e81610c1b565b82525050565b60006040820190508181036000830152610c4e8185610be2565b9050610c5d6020830184610c25565b9392505050565b610c6d81610c1b565b8114610c7857600080fd5b50565b600081359050610c8a81610c64565b92915050565b600080600060608486031215610ca957610ca8610976565b5b600084013567ffffffffffffffff811115610cc757610cc661097b565b5b610cd386828701610a98565b9350506020610ce486828701610c7b565b9250506040610cf586828701610c7b565b9150509250925092565b600081519050919050565b600082825260208201905092915050565b6000819050602082019050919050565b600082825260208201905092915050565b6000610d4782610b9c565b610d518185610d2b565b9350610d61818560208601610bb8565b610d6a8161098a565b840191505092915050565b6000610d818383610d3c565b905092915050565b6000602082019050919050565b6000610da182610cff565b610dab8185610d0a565b935083602082028501610dbd85610d1b565b8060005b85811015610df95784840389528151610dda8582610d75565b9450610de583610d89565b925060208a01995050600181019050610dc1565b50829750879550505050505092915050565b60006020820190508181036000830152610e258184610d96565b905092915050565b7f4e487b7100000000000000000000000000000000000000000000000000000000600052602260045260246000fd5b60006002820490506001821680610e7457607f821691505b602082108103610e8757610e86610e2d565b5b50919050565b7f4e487b7100000000000000000000000000000000000000000000000000000000600052603260045260246000fd5b600081905092915050565b6000610ed282610b9c565b610edc8185610ebc565b9350610eec818560208601610bb8565b80840191505092915050565b6000610f048284610ec7565b915081905092915050565b7f4e487b7100000000000000000000000000000000000000000000000000000000600052601160045260246000fd5b6000610f4982610b0f565b9150610f5483610b0f565b9250828203905081811115610f6c57610f6b610f0f565b5b92915050565b6000610f7d82610c1b565b9150610f8883610c1b565b925082820190508281121560008312168382126000841215161715610fb057610faf610f0f565b5b92915050565b60008190508160005260206000209050919050565b60006020601f8301049050919050565b600082821b905092915050565b6000600883026110187fffffffffffffffffffffffffffffffffffffffffffffffffffffffffffffffff82610fdb565b6110228683610fdb565b95508019841693508086168417925050509392505050565b6000819050919050565b600061105f61105a61105584610b0f565b61103a565b610b0f565b9050919050565b6000819050919050565b61107983611044565b61108d61108582611066565b848454610fe8565b825550505050565b600090565b6110a2611095565b6110ad818484611070565b505050565b5b818110156110d1576110c660008261109a565b6001810190506110b3565b5050565b601f821115611116576110e781610fb6565b6110f084610fcb565b810160208510156110ff578190505b61111361110b85610fcb565b8301826110b2565b50505b505050565b600082821c905092915050565b60006111396000198460080261111b565b1980831691505092915050565b60006111528383611128565b9150826002028217905092915050565b61116b82610b9c565b67ffffffffffffffff8111156111845761118361099b565b5b61118e8254610e5c565b6111998282856110d5565b600060209050601f8311600181146111cc57600084156111ba578287015190505b6111c48582611146565b86555061122c565b601f1984166111da86610fb6565b60005b82811015611202578489015182556001820191506020850194506020810190506111dd565b8683101561121f578489015161121b601f891682611128565b8355505b6001600288020188555050505b505050505050565b600061123f82610c1b565b91507f8000000000000000000000000000000000000000000000000000000000000000820361127157611270610f0f565b5b816000039050919050565b600061128782610b0f565b915061129283610b0f565b92508282019050808211156112aa576112a9610f0f565b5b92915050565b60006112bb82610b0f565b91507fffffffffffffffffffffffffffffffffffffffffffffffffffffffffffffffff82036112ed576112ec610f0f565b5b600182019050919050565b60008154905061130781610e5c565b9050919050565b81810361131c5750506113f4565b611325826112f8565b67ffffffffffffffff81111561133e5761133d61099b565b5b6113488254610e5c565b6113538282856110d5565b6000601f8311600181146113825760008415611370578287015490505b61137a8582611146565b8655506113ed565b601f19841661139087610fb6565b965061139b86610fb6565b60005b828110156113c35784890154825560018201915060018501945060208101905061139e565b868310156113e057848901546113dc601f891682611128565b8355505b6001600288020188555050505b5050505050505b56fea2646970667358221220d841d02ba483ec5b44045bd47de9f327de3683be910f85279be32fcd4b4d0f0b64736f6c63430008130033",
  "immutableReferences": {},
  "source": "// SPDX-License-Identifier: MIT\r\npragma solidity >=0.4.22 <0.9.0;\r\n\r\ncontract SensorRanking {\r\n    struct Sensor {\r\n        string sensorId;\r\n        int totalWeight;\r\n    }\r\n\r\n    Sensor[] public sensors;\r\n    mapping(string => uint) public sensorIndex;\r\n    uint public centralWeightPool = 50000;\r\n\r\n    constructor() {\r\n        addSensorReading(\"Sensor1\", 3600, 600);\r\n        addSensorReading(\"Sensor1\", 3500, 650);\r\n        addSensorReading(\"Sensor1\", 3700, 550);\r\n\r\n        addSensorReading(\"Sensor2\", 4000, 700);\r\n        addSensorReading(\"Sensor2\", 3900, 600);\r\n        addSensorReading(\"Sensor2\", 4100, 550);\r\n\r\n        addSensorReading(\"Sensor3\", 3100, 500);\r\n        addSensorReading(\"Sensor3\", 3000, 600);\r\n        addSensorReading(\"Sensor3\", 3200, 550);\r\n    }\r\n\r\n    function calculateWeight(int moisture, int ph) private pure returns (int) {\r\n        int moistureWeight = (3000 <= moisture && moisture <= 10000) ? int(100) : int(-100);\r\n        int phWeight = (5500 <= ph && ph <= 6500) ? int(50) : int(-50);\r\n        return moistureWeight + phWeight;\r\n    }\r\n\r\n    function addSensorReading(string memory sensorId, int moisture, int ph) public {\r\n        int weight = calculateWeight(moisture, ph);\r\n\r\n        if (sensorIndex[sensorId] > 0) {\r\n            sensors[sensorIndex[sensorId] - 1].totalWeight += weight;\r\n        } else {\r\n            sensors.push(Sensor(sensorId, weight));\r\n            sensorIndex[sensorId] = sensors.length;\r\n        }\r\n\r\n        if (weight > 0) {\r\n            centralWeightPool -= uint(weight);\r\n        } else {\r\n            centralWeightPool += uint(-weight);\r\n        }\r\n    }\r\n\r\n    function sortSensors() public {\r\n        uint n = sensors.length;\r\n        for(uint i = 0; i < n; i++) {\r\n            for(uint j = 0; j < n - i - 1; j++) {\r\n                if(sensors[j].totalWeight < sensors[j + 1].totalWeight) {\r\n                    Sensor memory temp = sensors[j];\r\n                    sensors[j] = sensors[j + 1];\r\n                    sensors[j + 1] = temp;\r\n                }\r\n            }\r\n        }\r\n    }\r\n\r\n    function getSensorCount() public view returns (uint) {\r\n        return sensors.length;\r\n    }\r\n\r\n    function getSensor(uint index) public view returns (string memory, int) {\r\n        return (sensors[index].sensorId, sensors[index].totalWeight);\r\n    }\r\n    \r\n    function getSortedSensors() public view returns (string[] memory) {\r\n        string[] memory sensorIds = new string[](sensors.length);\r\n        for (uint i = 0; i < sensors.length; i++) {\r\n            sensorIds[i] = sensors[i].sensorId;\r\n        }\r\n        return sensorIds;\r\n    }\r\n\r\n    function getCentralWeightPool() public view returns (uint) {\r\n        return centralWeightPool;\r\n    }\r\n}\r\n\r\n",
  "sourcePath": "E:\\IUB-Internship\\blockChainProject2\\Dapps_with_ReactJs\\contracts\\iot_blockchain.sol",
  "compiler": {
    "name": "solc",
    "version": "0.8.19+commit.7dd6d404.Emscripten.clang"
  },
  "schemaVersion": "3.4.15",
  "updatedAt": "2023-08-28T12:40:14.539Z",
  "devdoc": {
    "kind": "dev",
    "methods": {},
    "version": 1
  },
  "userdoc": {
    "kind": "user",
    "methods": {},
    "version": 1
  }
}