{
  "contractName": "SensorRanking",
  "abi": [
    {
      "inputs": [],
      "stateMutability": "nonpayable",
      "type": "constructor"
    },
    {
      "inputs": [],
      "name": "centralWeightPool",
      "outputs": [
        {
          "internalType": "uint256",
          "name": "",
          "type": "uint256"
        }
      ],
      "stateMutability": "view",
      "type": "function",
      "constant": true
    },
    {
      "inputs": [
        {
          "internalType": "string",
          "name": "",
          "type": "string"
        }
      ],
      "name": "sensorIndex",
      "outputs": [
        {
          "internalType": "uint256",
          "name": "",
          "type": "uint256"
        }
      ],
      "stateMutability": "view",
      "type": "function",
      "constant": true
    },
    {
      "inputs": [
        {
          "internalType": "uint256",
          "name": "",
          "type": "uint256"
        }
      ],
      "name": "sensors",
      "outputs": [
        {
          "internalType": "string",
          "name": "sensorId",
          "type": "string"
        },
        {
          "internalType": "int256",
          "name": "totalWeight",
          "type": "int256"
        }
      ],
      "stateMutability": "view",
      "type": "function",
      "constant": true
    },
    {
      "inputs": [
        {
          "internalType": "string",
          "name": "sensorId",
          "type": "string"
        },
        {
          "internalType": "int256",
          "name": "moisture",
          "type": "int256"
        },
        {
          "internalType": "int256",
          "name": "ph",
          "type": "int256"
        }
      ],
      "name": "addSensorReading",
      "outputs": [],
      "stateMutability": "nonpayable",
      "type": "function"
    },
    {
      "inputs": [],
      "name": "sortSensors",
      "outputs": [
        {
          "components": [
            {
              "internalType": "string",
              "name": "sensorId",
              "type": "string"
            },
            {
              "internalType": "int256",
              "name": "totalWeight",
              "type": "int256"
            }
          ],
          "internalType": "struct SensorRanking.Sensor[]",
          "name": "",
          "type": "tuple[]"
        }
      ],
      "stateMutability": "nonpayable",
      "type": "function"
    },
    {
      "inputs": [],
      "name": "getSensorCount",
      "outputs": [
        {
          "internalType": "uint256",
          "name": "",
          "type": "uint256"
        }
      ],
      "stateMutability": "view",
      "type": "function",
      "constant": true
    },
    {
      "inputs": [
        {
          "internalType": "uint256",
          "name": "index",
          "type": "uint256"
        }
      ],
      "name": "getSensor",
      "outputs": [
        {
          "internalType": "string",
          "name": "",
          "type": "string"
        },
        {
          "internalType": "int256",
          "name": "",
          "type": "int256"
        }
      ],
      "stateMutability": "view",
      "type": "function",
      "constant": true
    },
    {
      "inputs": [],
      "name": "getSortedSensors",
      "outputs": [
        {
          "components": [
            {
              "internalType": "string",
              "name": "sensorId",
              "type": "string"
            },
            {
              "internalType": "int256",
              "name": "totalWeight",
              "type": "int256"
            }
          ],
          "internalType": "struct SensorRanking.Sensor[]",
          "name": "",
          "type": "tuple[]"
        }
      ],
      "stateMutability": "view",
      "type": "function",
      "constant": true
    },
    {
      "inputs": [],
      "name": "getCentralWeightPool",
      "outputs": [
        {
          "internalType": "uint256",
          "name": "",
          "type": "uint256"
        }
      ],
      "stateMutability": "view",
      "type": "function",
      "constant": true
    }
  ],
  "bytecode": "0x608060405261c3506002553480156200001757600080fd5b50620000646040518060400160405280600781526020017f53656e736f723100000000000000000000000000000000000000000000000000815250610e10610258620002ca60201b60201c565b620000b06040518060400160405280600781526020017f53656e736f723100000000000000000000000000000000000000000000000000815250610dac61028a620002ca60201b60201c565b620000fc6040518060400160405280600781526020017f53656e736f723100000000000000000000000000000000000000000000000000815250610e74610226620002ca60201b60201c565b620001486040518060400160405280600781526020017f53656e736f723200000000000000000000000000000000000000000000000000815250610fa06102bc620002ca60201b60201c565b620001946040518060400160405280600781526020017f53656e736f723200000000000000000000000000000000000000000000000000815250610f3c610258620002ca60201b60201c565b620001e06040518060400160405280600781526020017f53656e736f723200000000000000000000000000000000000000000000000000815250611004610226620002ca60201b60201c565b6200022c6040518060400160405280600781526020017f53656e736f723300000000000000000000000000000000000000000000000000815250610c1c6101f4620002ca60201b60201c565b620002786040518060400160405280600781526020017f53656e736f723300000000000000000000000000000000000000000000000000815250610bb8610258620002ca60201b60201c565b620002c46040518060400160405280600781526020017f53656e736f723300000000000000000000000000000000000000000000000000815250610c80610226620002ca60201b60201c565b62000a6c565b6000620002de83836200046560201b60201c565b90506000600185604051620002f4919062000587565b90815260200160405180910390205411156200037e578060006001808760405162000320919062000587565b9081526020016040518091039020546200033b9190620005d9565b815481106200034f576200034e62000614565b5b906000526020600020906002020160010160008282546200037191906200064d565b925050819055506200040d565b600060405180604001604052808681526020018381525090806001815401808255809150506001900390600052602060002090600202016000909190919091506000820151816000019081620003d59190620008fd565b50602082015181600101555050600080549050600185604051620003fa919062000587565b9081526020016040518091039020819055505b6000811315620004385780600260008282546200042b9190620005d9565b925050819055506200045f565b806200044490620009e4565b6002600082825462000457919062000a31565b925050819055505b50505050565b60008083610bb8131580156200047d57506127108413155b620004a9577fffffffffffffffffffffffffffffffffffffffffffffffffffffffffffffff9c620004ac565b60645b905060008361157c13158015620004c557506119648413155b620004f1577fffffffffffffffffffffffffffffffffffffffffffffffffffffffffffffffce620004f4565b60325b905080826200050491906200064d565b9250505092915050565b600081519050919050565b600081905092915050565b60005b838110156200054457808201518184015260208101905062000527565b60008484015250505050565b60006200055d826200050e565b62000569818562000519565b93506200057b81856020860162000524565b80840191505092915050565b600062000595828462000550565b915081905092915050565b6000819050919050565b7f4e487b7100000000000000000000000000000000000000000000000000000000600052601160045260246000fd5b6000620005e682620005a0565b9150620005f383620005a0565b92508282039050818111156200060e576200060d620005aa565b5b92915050565b7f4e487b7100000000000000000000000000000000000000000000000000000000600052603260045260246000fd5b6000819050919050565b60006200065a8262000643565b9150620006678362000643565b925082820190508281121560008312168382126000841215161715620006925762000691620005aa565b5b92915050565b7f4e487b7100000000000000000000000000000000000000000000000000000000600052604160045260246000fd5b7f4e487b7100000000000000000000000000000000000000000000000000000000600052602260045260246000fd5b600060028204905060018216806200070f57607f821691505b602082108103620007255762000724620006c7565b5b50919050565b60008190508160005260206000209050919050565b60006020601f8301049050919050565b600082821b905092915050565b6000600883026200078f7fffffffffffffffffffffffffffffffffffffffffffffffffffffffffffffffff8262000750565b6200079b868362000750565b95508019841693508086168417925050509392505050565b6000819050919050565b6000620007de620007d8620007d284620005a0565b620007b3565b620005a0565b9050919050565b6000819050919050565b620007fa83620007bd565b620008126200080982620007e5565b8484546200075d565b825550505050565b600090565b620008296200081a565b62000836818484620007ef565b505050565b5b818110156200085e57620008526000826200081f565b6001810190506200083c565b5050565b601f821115620008ad5762000877816200072b565b620008828462000740565b8101602085101562000892578190505b620008aa620008a18562000740565b8301826200083b565b50505b505050565b600082821c905092915050565b6000620008d260001984600802620008b2565b1980831691505092915050565b6000620008ed8383620008bf565b9150826002028217905092915050565b62000908826200050e565b67ffffffffffffffff81111562000924576200092362000698565b5b620009308254620006f6565b6200093d82828562000862565b600060209050601f83116001811462000975576000841562000960578287015190505b6200096c8582620008df565b865550620009dc565b601f19841662000985866200072b565b60005b82811015620009af5784890151825560018201915060208501945060208101905062000988565b86831015620009cf5784890151620009cb601f891682620008bf565b8355505b6001600288020188555050505b505050505050565b6000620009f18262000643565b91507f8000000000000000000000000000000000000000000000000000000000000000820362000a265762000a25620005aa565b5b816000039050919050565b600062000a3e82620005a0565b915062000a4b83620005a0565b925082820190508082111562000a665762000a65620005aa565b5b92915050565b6115f28062000a7c6000396000f3fe608060405234801561001057600080fd5b50600436106100935760003560e01c806378804426116100665780637880442614610135578063a5c3a48b14610166578063b49b673b14610182578063cd37a140146101a0578063eeed6036146101be57610093565b8063379b6d35146100985780633c11011f146100c85780633c51b21f146100e6578063412f2e8214610104575b600080fd5b6100b260048036038101906100ad9190610c40565b6101dc565b6040516100bf9190610ca2565b60405180910390f35b6100d061020a565b6040516100dd9190610ca2565b60405180910390f35b6100ee610214565b6040516100fb9190610ca2565b60405180910390f35b61011e60048036038101906101199190610ce9565b610220565b60405161012c929190610dae565b60405180910390f35b61014f600480360381019061014a9190610ce9565b6102dc565b60405161015d929190610dae565b60405180910390f35b610180600480360381019061017b9190610e0a565b6103bf565b005b61018a610539565b6040516101979190610fd1565b60405180910390f35b6101a86106db565b6040516101b59190610ca2565b60405180910390f35b6101c66106e1565b6040516101d39190610fd1565b60405180910390f35b6001818051602081018201805184825260208301602085012081835280955050505050506000915090505481565b6000600254905090565b60008080549050905090565b6000818154811061023057600080fd5b906000526020600020906002020160009150905080600001805461025390611022565b80601f016020809104026020016040519081016040528092919081815260200182805461027f90611022565b80156102cc5780601f106102a1576101008083540402835291602001916102cc565b820191906000526020600020905b8154815290600101906020018083116102af57829003601f168201915b5050505050908060010154905082565b606060008083815481106102f3576102f2611053565b5b90600052602060002090600202016000016000848154811061031857610317611053565b5b90600052602060002090600202016001015481805461033690611022565b80601f016020809104026020016040519081016040528092919081815260200182805461036290611022565b80156103af5780601f10610384576101008083540402835291602001916103af565b820191906000526020600020905b81548152906001019060200180831161039257829003601f168201915b5050505050915091509150915091565b60006103cb8383610a2b565b905060006001856040516103df91906110be565b908152602001604051809103902054111561045e578060006001808760405161040891906110be565b9081526020016040518091039020546104219190611104565b8154811061043257610431611053565b5b906000526020600020906002020160010160008282546104529190611138565b925050819055506104e9565b6000604051806040016040528086815260200183815250908060018154018082558091505060019003906000526020600020906002020160009091909190915060008201518160000190816104b39190611328565b506020820151816001015550506000805490506001856040516104d691906110be565b9081526020016040518091039020819055505b60008113156105105780600260008282546105049190611104565b92505081905550610533565b8061051a906113fa565b6002600082825461052b9190611442565b925050819055505b50505050565b60606000808054905067ffffffffffffffff81111561055b5761055a610b15565b5b60405190808252806020026020018201604052801561059457816020015b610581610acc565b8152602001906001900390816105795790505b50905060005b6000805490508110156106d357600081815481106105bb576105ba611053565b5b906000526020600020906002020160000180546105d790611022565b80601f016020809104026020016040519081016040528092919081815260200182805461060390611022565b80156106505780601f1061062557610100808354040283529160200191610650565b820191906000526020600020905b81548152906001019060200180831161063357829003601f168201915b505050505082828151811061066857610667611053565b5b6020026020010151600001819052506000818154811061068b5761068a611053565b5b9060005260206000209060020201600101548282815181106106b0576106af611053565b5b6020026020010151602001818152505080806106cb90611476565b91505061059a565b508091505090565b60025481565b606060008080549050905060005b818110156109305760005b600182846107089190611104565b6107129190611104565b81101561091c5760006001826107289190611442565b8154811061073957610738611053565b5b9060005260206000209060020201600101546000828154811061075f5761075e611053565b5b906000526020600020906002020160010154121561090957600080828154811061078c5761078b611053565b5b90600052602060002090600202016040518060400160405290816000820180546107b590611022565b80601f01602080910402602001604051908101604052809291908181526020018280546107e190611022565b801561082e5780601f106108035761010080835404028352916020019161082e565b820191906000526020600020905b81548152906001019060200180831161081157829003601f168201915b50505050508152602001600182015481525050905060006001836108529190611442565b8154811061086357610862611053565b5b90600052602060002090600202016000838154811061088557610884611053565b5b9060005260206000209060020201600082018160000190816108a791906114d4565b50600182015481600101559050508060006001846108c59190611442565b815481106108d6576108d5611053565b5b906000526020600020906002020160008201518160000190816108f99190611328565b5060208201518160010155905050505b808061091490611476565b9150506106fa565b50808061092890611476565b9150506106ef565b506000805480602002602001604051908101604052809291908181526020016000905b82821015610a21578382906000526020600020906002020160405180604001604052908160008201805461098690611022565b80601f01602080910402602001604051908101604052809291908181526020018280546109b290611022565b80156109ff5780601f106109d4576101008083540402835291602001916109ff565b820191906000526020600020905b8154815290600101906020018083116109e257829003601f168201915b5050505050815260200160018201548152505081526020019060010190610953565b5050505091505090565b60008083610bb813158015610a4257506127108413155b610a6c577fffffffffffffffffffffffffffffffffffffffffffffffffffffffffffffff9c610a6f565b60645b905060008361157c13158015610a8757506119648413155b610ab1577fffffffffffffffffffffffffffffffffffffffffffffffffffffffffffffffce610ab4565b60325b90508082610ac29190611138565b9250505092915050565b604051806040016040528060608152602001600081525090565b6000604051905090565b600080fd5b600080fd5b600080fd5b600080fd5b6000601f19601f8301169050919050565b7f4e487b7100000000000000000000000000000000000000000000000000000000600052604160045260246000fd5b610b4d82610b04565b810181811067ffffffffffffffff82111715610b6c57610b6b610b15565b5b80604052505050565b6000610b7f610ae6565b9050610b8b8282610b44565b919050565b600067ffffffffffffffff821115610bab57610baa610b15565b5b610bb482610b04565b9050602081019050919050565b82818337600083830152505050565b6000610be3610bde84610b90565b610b75565b905082815260208101848484011115610bff57610bfe610aff565b5b610c0a848285610bc1565b509392505050565b600082601f830112610c2757610c26610afa565b5b8135610c37848260208601610bd0565b91505092915050565b600060208284031215610c5657610c55610af0565b5b600082013567ffffffffffffffff811115610c7457610c73610af5565b5b610c8084828501610c12565b91505092915050565b6000819050919050565b610c9c81610c89565b82525050565b6000602082019050610cb76000830184610c93565b92915050565b610cc681610c89565b8114610cd157600080fd5b50565b600081359050610ce381610cbd565b92915050565b600060208284031215610cff57610cfe610af0565b5b6000610d0d84828501610cd4565b91505092915050565b600081519050919050565b600082825260208201905092915050565b60005b83811015610d50578082015181840152602081019050610d35565b60008484015250505050565b6000610d6782610d16565b610d718185610d21565b9350610d81818560208601610d32565b610d8a81610b04565b840191505092915050565b6000819050919050565b610da881610d95565b82525050565b60006040820190508181036000830152610dc88185610d5c565b9050610dd76020830184610d9f565b9392505050565b610de781610d95565b8114610df257600080fd5b50565b600081359050610e0481610dde565b92915050565b600080600060608486031215610e2357610e22610af0565b5b600084013567ffffffffffffffff811115610e4157610e40610af5565b5b610e4d86828701610c12565b9350506020610e5e86828701610df5565b9250506040610e6f86828701610df5565b9150509250925092565b600081519050919050565b600082825260208201905092915050565b6000819050602082019050919050565b600082825260208201905092915050565b6000610ec182610d16565b610ecb8185610ea5565b9350610edb818560208601610d32565b610ee481610b04565b840191505092915050565b610ef881610d95565b82525050565b60006040830160008301518482036000860152610f1b8282610eb6565b9150506020830151610f306020860182610eef565b508091505092915050565b6000610f478383610efe565b905092915050565b6000602082019050919050565b6000610f6782610e79565b610f718185610e84565b935083602082028501610f8385610e95565b8060005b85811015610fbf5784840389528151610fa08582610f3b565b9450610fab83610f4f565b925060208a01995050600181019050610f87565b50829750879550505050505092915050565b60006020820190508181036000830152610feb8184610f5c565b905092915050565b7f4e487b7100000000000000000000000000000000000000000000000000000000600052602260045260246000fd5b6000600282049050600182168061103a57607f821691505b60208210810361104d5761104c610ff3565b5b50919050565b7f4e487b7100000000000000000000000000000000000000000000000000000000600052603260045260246000fd5b600081905092915050565b600061109882610d16565b6110a28185611082565b93506110b2818560208601610d32565b80840191505092915050565b60006110ca828461108d565b915081905092915050565b7f4e487b7100000000000000000000000000000000000000000000000000000000600052601160045260246000fd5b600061110f82610c89565b915061111a83610c89565b9250828203905081811115611132576111316110d5565b5b92915050565b600061114382610d95565b915061114e83610d95565b925082820190508281121560008312168382126000841215161715611176576111756110d5565b5b92915050565b60008190508160005260206000209050919050565b60006020601f8301049050919050565b600082821b905092915050565b6000600883026111de7fffffffffffffffffffffffffffffffffffffffffffffffffffffffffffffffff826111a1565b6111e886836111a1565b95508019841693508086168417925050509392505050565b6000819050919050565b600061122561122061121b84610c89565b611200565b610c89565b9050919050565b6000819050919050565b61123f8361120a565b61125361124b8261122c565b8484546111ae565b825550505050565b600090565b61126861125b565b611273818484611236565b505050565b5b818110156112975761128c600082611260565b600181019050611279565b5050565b601f8211156112dc576112ad8161117c565b6112b684611191565b810160208510156112c5578190505b6112d96112d185611191565b830182611278565b50505b505050565b600082821c905092915050565b60006112ff600019846008026112e1565b1980831691505092915050565b600061131883836112ee565b9150826002028217905092915050565b61133182610d16565b67ffffffffffffffff81111561134a57611349610b15565b5b6113548254611022565b61135f82828561129b565b600060209050601f8311600181146113925760008415611380578287015190505b61138a858261130c565b8655506113f2565b601f1984166113a08661117c565b60005b828110156113c8578489015182556001820191506020850194506020810190506113a3565b868310156113e557848901516113e1601f8916826112ee565b8355505b6001600288020188555050505b505050505050565b600061140582610d95565b91507f80000000000000000000000000000000000000000000000000000000000000008203611437576114366110d5565b5b816000039050919050565b600061144d82610c89565b915061145883610c89565b92508282019050808211156114705761146f6110d5565b5b92915050565b600061148182610c89565b91507fffffffffffffffffffffffffffffffffffffffffffffffffffffffffffffffff82036114b3576114b26110d5565b5b600182019050919050565b6000815490506114cd81611022565b9050919050565b8181036114e25750506115ba565b6114eb826114be565b67ffffffffffffffff81111561150457611503610b15565b5b61150e8254611022565b61151982828561129b565b6000601f8311600181146115485760008415611536578287015490505b611540858261130c565b8655506115b3565b601f1984166115568761117c565b96506115618661117c565b60005b8281101561158957848901548255600182019150600185019450602081019050611564565b868310156115a657848901546115a2601f8916826112ee565b8355505b6001600288020188555050505b5050505050505b56fea2646970667358221220e14faabff8007d2a6ef457b8803171ba10f6194e34de6a76cb653d1fb66cd51864736f6c63430008130033",
  "immutableReferences": {},
  "source": "// SPDX-License-Identifier: MIT\r\npragma solidity >=0.4.22 <0.9.0;\r\n\r\ncontract SensorRanking {\r\n    struct Sensor {\r\n        string sensorId;\r\n        int totalWeight;\r\n    }\r\n\r\n    Sensor[] public sensors;\r\n    mapping(string => uint) public sensorIndex;\r\n    uint public centralWeightPool = 50000;\r\n\r\n    constructor() {\r\n        addSensorReading(\"Sensor1\", 3600, 600);\r\n        addSensorReading(\"Sensor1\", 3500, 650);\r\n        addSensorReading(\"Sensor1\", 3700, 550);\r\n\r\n        addSensorReading(\"Sensor2\", 4000, 700);\r\n        addSensorReading(\"Sensor2\", 3900, 600);\r\n        addSensorReading(\"Sensor2\", 4100, 550);\r\n\r\n        addSensorReading(\"Sensor3\", 3100, 500);\r\n        addSensorReading(\"Sensor3\", 3000, 600);\r\n        addSensorReading(\"Sensor3\", 3200, 550);\r\n    }\r\n\r\n    function calculateWeight(int moisture, int ph) private pure returns (int) {\r\n        int moistureWeight = (3000 <= moisture && moisture <= 10000)\r\n            ? int(100)\r\n            : int(-100);\r\n        int phWeight = (5500 <= ph && ph <= 6500) ? int(50) : int(-50);\r\n        return moistureWeight + phWeight;\r\n    }\r\n\r\n    function addSensorReading(\r\n        string memory sensorId,\r\n        int moisture,\r\n        int ph\r\n    ) public {\r\n        int weight = calculateWeight(moisture, ph);\r\n\r\n        if (sensorIndex[sensorId] > 0) {\r\n            sensors[sensorIndex[sensorId] - 1].totalWeight += weight;\r\n        } else {\r\n            sensors.push(Sensor(sensorId, weight));\r\n            sensorIndex[sensorId] = sensors.length;\r\n        }\r\n\r\n        if (weight > 0) {\r\n            centralWeightPool -= uint(weight);\r\n        } else {\r\n            centralWeightPool += uint(-weight);\r\n        }\r\n    }\r\n\r\n    function sortSensors() public returns (Sensor[] memory) {\r\n        uint n = sensors.length;\r\n        for (uint i = 0; i < n; i++) {\r\n            for (uint j = 0; j < n - i - 1; j++) {\r\n                if (sensors[j].totalWeight < sensors[j + 1].totalWeight) {\r\n                    Sensor memory temp = sensors[j];\r\n                    sensors[j] = sensors[j + 1];\r\n                    sensors[j + 1] = temp;\r\n                }\r\n            }\r\n        }\r\n        return sensors;\r\n    }\r\n\r\n    // Test codes --------------------------------\r\n\r\n    // Test codes --------------------------------\r\n\r\n    function getSensorCount() public view returns (uint) {\r\n        return sensors.length;\r\n    }\r\n\r\n    function getSensor(uint index) public view returns (string memory, int) {\r\n        return (sensors[index].sensorId, sensors[index].totalWeight);\r\n    }\r\n\r\n    function getSortedSensors() public view returns (Sensor[] memory) {\r\n        Sensor[] memory sensorDatas = new Sensor[](sensors.length);\r\n        for (uint i = 0; i < sensors.length; i++) {\r\n            sensorDatas[i].sensorId = sensors[i].sensorId;\r\n            sensorDatas[i].totalWeight = sensors[i].totalWeight;\r\n        }\r\n        return sensorDatas;\r\n    }\r\n\r\n    function getCentralWeightPool() public view returns (uint) {\r\n        return centralWeightPool;\r\n    }\r\n}\r\n",
  "sourcePath": "E:\\IUB-Internship\\blockChainProject2\\Dapps_with_ReactJs\\contracts\\SensorRanking.sol",
  "compiler": {
    "name": "solc",
    "version": "0.8.19+commit.7dd6d404.Emscripten.clang"
  },
  "schemaVersion": "3.4.15",
  "updatedAt": "2023-10-06T16:59:07.891Z",
  "networkType": "ethereum",
  "devdoc": {
    "kind": "dev",
    "methods": {},
    "version": 1
  },
  "userdoc": {
    "kind": "user",
    "methods": {},
    "version": 1
  }
}